{
  "_format": "hh-sol-artifact-1",
  "contractName": "Lmao",
  "sourceName": "contracts/Lmao.sol",
  "abi": [
    {
      "inputs": [
        {
          "internalType": "address",
          "name": "_coreBridgeAddress",
          "type": "address"
        },
        {
          "internalType": "address",
          "name": "_tokenBridgeAddress",
          "type": "address"
        },
        {
          "internalType": "uint16",
          "name": "_wormholeChainId",
          "type": "uint16"
        }
      ],
      "stateMutability": "nonpayable",
      "type": "constructor"
    },
    {
      "anonymous": false,
      "inputs": [
        {
          "indexed": true,
          "internalType": "string",
          "name": "str",
          "type": "string"
        }
      ],
      "name": "Log",
      "type": "event"
    },
    {
      "anonymous": false,
      "inputs": [
        {
          "indexed": true,
          "internalType": "address",
          "name": "addr",
          "type": "address"
        }
      ],
      "name": "TokenTransferred",
      "type": "event"
    },
    {
      "inputs": [
        {
          "internalType": "uint16",
          "name": "_targetChainId",
          "type": "uint16"
        },
        {
          "internalType": "address",
          "name": "_targetContractAddress",
          "type": "address"
        },
        {
          "internalType": "address",
          "name": "_originTokenAddress",
          "type": "address"
        }
      ],
      "name": "executeBridgeOrigin",
      "outputs": [
        {
          "internalType": "uint256",
          "name": "sequence",
          "type": "uint256"
        }
      ],
      "stateMutability": "payable",
      "type": "function"
    },
    {
      "inputs": [
        {
          "internalType": "bytes",
          "name": "encodedVm",
          "type": "bytes"
        }
      ],
      "name": "receiveBridge",
      "outputs": [],
      "stateMutability": "nonpayable",
      "type": "function"
    }
  ],
  "bytecode": "0x610100604052600080546001600160a01b0319169055600180546001600160c01b03191673eeeeeeeeeeeeeeeeeeeeeeeeeeeeeeeeeeeeeeee17905534801561004757600080fd5b50604051610e9d380380610e9d833981016040819052610066916100a6565b6001600160a01b03928316608052911660a081905260c05261ffff1660e0526100f4565b80516001600160a01b03811681146100a157600080fd5b919050565b6000806000606084860312156100bb57600080fd5b6100c48461008a565b92506100d26020850161008a565b9150604084015161ffff811681146100e957600080fd5b809150509250925092565b60805160a05160c05160e051610d69610134600039600061025d015260005050600081816079015281816101c3015261030f015260005050610d696000f3fe6080604052600436106100295760003560e01c80632e411a5f1461002e578063e5da2be414610053575b600080fd5b61004161003c366004610a06565b610075565b60405190815260200160405180910390f35b34801561005f57600080fd5b5061007361006e366004610ac7565b6101bc565b005b60007f00000000000000000000000000000000000000000000000000000000000000006001600160a01b031663bee9cdfc34866100b8876001600160a01b031690565b6001546040513360601b6bffffffffffffffffffffffff191660208201527401000000000000000000000000000000000000000090910463ffffffff16906034016040516020818303038152906040526040518663ffffffff1660e01b81526004016101279493929190610ba3565b60206040518083038185885af1158015610145573d6000803e3d6000fd5b50505050506040513d601f19601f8201168201806040525081019061016a9190610bdc565b67ffffffffffffffff16905060018060148282829054906101000a900463ffffffff166101979190610c23565b92506101000a81548163ffffffff021916908363ffffffff1602179055509392505050565b60006102597f00000000000000000000000000000000000000000000000000000000000000006001600160a01b031663c3f511c1846040518263ffffffff1660e01b815260040161020d9190610c4b565b6000604051808303816000875af115801561022c573d6000803e3d6000fd5b505050506040513d6000823e601f3d908101601f191682016040526102549190810190610c5e565b6105c3565b90507f000000000000000000000000000000000000000000000000000000000000000061ffff168160a0015161ffff16146102db5760405162461bcd60e51b815260206004820152600f60248201527f57726f6e6720436861696e20494421000000000000000000000000000000000060448201526064015b60405180910390fd5b60608101516040808301519051630ff8f14360e11b815261ffff909216600483015260248201526000906001600160a01b037f00000000000000000000000000000000000000000000000000000000000000001690631ff1e28690604401602060405180830381865afa158015610356573d6000803e3d6000fd5b505050506040513d601f19601f8201168201806040525081019061037a9190610cd5565b90506001600160a01b0381166103f85760405162461bcd60e51b815260206004820152602560248201527f4e6f207772617070657220666f72207468697320746f6b656e2063726561746560448201527f642079657400000000000000000000000000000000000000000000000000000060648201526084016102d2565b600061042361042061041b600060208760e0015161071c9092919063ffffffff16565b610844565b90565b60208401516040516370a0823160e01b8152306004820152919250906001600160a01b038416906370a0823190602401602060405180830381865afa158015610470573d6000803e3d6000fd5b505050506040513d601f19601f820116820180604052508101906104949190610cf2565b10156105085760405162461bcd60e51b815260206004820152602860248201527f496e73756666696369656e7420616d6f756e74206f6620746f6b656e20746f2060448201527f7472616e7366657200000000000000000000000000000000000000000000000060648201526084016102d2565b60208301516040516323b872dd60e01b81523060048201526001600160a01b0383811660248301526044820192909252908316906323b872dd906064016020604051808303816000875af1158015610564573d6000803e3d6000fd5b505050506040513d601f19601f820116820180604052508101906105889190610d0b565b506040516001600160a01b038216907fef4bee30cfa39c1dbc1c34df612561b860a242d4476e6733ad62c7487976ebfc90600090a250505050565b60408051610100808201835260008083526020830181905282840181905260608084018290526080840182905260a0840182905260c0840182905260e08401528351918201909352909190806106258361061f8782600161071c565b9061085f565b60ff16815260200161064f6000610649600160208961071c9092919063ffffffff16565b906108c5565b81526020016106766000610670602160208961071c9092919063ffffffff16565b9061092b565b8152602001610693600061068d876041600261071c565b90610988565b61ffff1681526020016106b86000610670604360208961071c9092919063ffffffff16565b81526020016106cf600061068d876063600261071c565b61ffff1681526020016106f46000610670606560208961071c9092919063ffffffff16565b8152602001610713608580875161070b9190610d2d565b87919061071c565b90529392505050565b60608161072a81601f610d44565b10156107785760405162461bcd60e51b815260206004820152600e60248201527f736c6963655f6f766572666c6f7700000000000000000000000000000000000060448201526064016102d2565b6107828284610d44565b845110156107d25760405162461bcd60e51b815260206004820152601160248201527f736c6963655f6f75744f66426f756e647300000000000000000000000000000060448201526064016102d2565b6060821580156107f1576040519150600082526020820160405261083b565b6040519150601f8416801560200281840101858101878315602002848b0101015b8183101561082a578051835260209283019201610812565b5050858452601f01601f1916604052505b50949350505050565b6000815160000361085757506000919050565b506020015190565b600061086c826001610d44565b835110156108bc5760405162461bcd60e51b815260206004820152601360248201527f746f55696e74385f6f75744f66426f756e64730000000000000000000000000060448201526064016102d2565b50016001015190565b60006108d2826020610d44565b835110156109225760405162461bcd60e51b815260206004820152601560248201527f746f55696e743235365f6f75744f66426f756e6473000000000000000000000060448201526064016102d2565b50016020015190565b6000610938826020610d44565b835110156109225760405162461bcd60e51b815260206004820152601560248201527f746f427974657333325f6f75744f66426f756e6473000000000000000000000060448201526064016102d2565b6000610995826002610d44565b835110156109e55760405162461bcd60e51b815260206004820152601460248201527f746f55696e7431365f6f75744f66426f756e647300000000000000000000000060448201526064016102d2565b50016002015190565b6001600160a01b0381168114610a0357600080fd5b50565b600080600060608486031215610a1b57600080fd5b833561ffff81168114610a2d57600080fd5b92506020840135610a3d816109ee565b91506040840135610a4d816109ee565b809150509250925092565b634e487b7160e01b600052604160045260246000fd5b604051601f8201601f1916810167ffffffffffffffff81118282101715610a9757610a97610a58565b604052919050565b600067ffffffffffffffff821115610ab957610ab9610a58565b50601f01601f191660200190565b600060208284031215610ad957600080fd5b813567ffffffffffffffff811115610af057600080fd5b8201601f81018413610b0157600080fd5b8035610b14610b0f82610a9f565b610a6e565b818152856020838501011115610b2957600080fd5b81602084016020830137600091810160200191909152949350505050565b60005b83811015610b62578181015183820152602001610b4a565b83811115610b71576000848401525b50505050565b60008151808452610b8f816020860160208601610b47565b601f01601f19169290920160200192915050565b61ffff8516815283602082015263ffffffff83166040820152608060608201526000610bd26080830184610b77565b9695505050505050565b600060208284031215610bee57600080fd5b815167ffffffffffffffff81168114610c0657600080fd5b9392505050565b634e487b7160e01b600052601160045260246000fd5b600063ffffffff808316818516808303821115610c4257610c42610c0d565b01949350505050565b602081526000610c066020830184610b77565b600060208284031215610c7057600080fd5b815167ffffffffffffffff811115610c8757600080fd5b8201601f81018413610c9857600080fd5b8051610ca6610b0f82610a9f565b818152856020838501011115610cbb57600080fd5b610ccc826020830160208601610b47565b95945050505050565b600060208284031215610ce757600080fd5b8151610c06816109ee565b600060208284031215610d0457600080fd5b5051919050565b600060208284031215610d1d57600080fd5b81518015158114610c0657600080fd5b600082821015610d3f57610d3f610c0d565b500390565b60008219821115610d5757610d57610c0d565b50019056fea164736f6c634300080f000a",
  "linkReferences": {},
  "deployedLinkReferences": {}
}